:1000000000400000C1000000ED000000F100000011
:10001000F5000000F9000000FD00000000000000F5
:1000200000000000000000000000000001010000CE
:100030000501000000000000090100000D010000A2
:100040001101000011010000110100001101000068
:100050001101000011010000110100001101000058
:100060001101000011010000110100001101000048
:100070001101000015010000190100001D01000020
:100080002101000025010000290100002D010000D0
:1000900031010000350100000000000000000000F8
:1000A000390100003D010000410100000000000096
:1000B00045010000490100004D0100005101000010
:1000C00000B583B0074B019304E0019B1A1D019218
:1000D00000221A60019A044B9A42F6D300F000F90C
:1000E000FEE7C0461C0300001C030000FEE7C046FC
:1000F000FEE7C046FEE7C046FEE7C046FEE7C04654
:10010000FEE7C046FEE7C046FEE7C046FEE7C04643
:10011000FEE7C046FEE7C046FEE7C046FEE7C04633
:10012000FEE7C046FEE7C046FEE7C046FEE7C04623
:10013000FEE7C046FEE7C046FEE7C046FEE7C04613
:10014000FEE7C046FEE7C046FEE7C046FEE7C04603
:10015000FEE7C04682B00190034B1B68019A1A600B
:10016000C04602B07047C0461803000082B001903C
:10017000034B1B680433019A1A60C04602B07047F3
:100180001803000082B00190034B1B680833019AEA
:100190001A60C04602B070471803000082B0019098
:1001A000034B1B680C33019A1A60C04602B07047BB
:1001B0001803000082B00190034B1B681033019AB2
:1001C0001A60C04602B070471803000082B0019068
:1001D000034B1B681433019A1A60C04602B0704783
:1001E0001803000082B00190034B1B681833019A7A
:1001F0001A60C04602B070471803000082B0019038
:10020000034B1B681C33019A1A60C04602B070474A
:1002100018030000144B1B681C3300221A60124B99
:100220001B68183300221A600F4B1B68143300221E
:100230001A600D4B1B68103300221A600A4B1B68B2
:100240000C3300221A60084B1B68083300221A6026
:10025000054B1B68043300221A60034B1B68002205
:100260001A60C0467047C04618030000024B1B6866
:100270001B6818007047C0461803000082B0019048
:10028000044B1A68019B9B00D3181B68180002B02E
:100290007047C0461403000084B00190094B1B68EE
:1002A00008331B680393039A019B1A411300012230
:1002B00013400293029B013B5A425341DBB21800A8
:1002C00004B0704714030000C046044B1B68083399
:1002D0001B68002BF9D0C0467047C04614030000CD
:1002E00010B56420FFF736FF6520FFF73FFF66205B
:1002F000FFF748FF6720FFF751FF6820FFF75AFF1D
:100300006920FFF763FF7020FFF76CFF7120FFF794
:0403100075FFE6E7A8
:08031400000000400000005051
:00000001FF
